{
  "_format": "hh-sol-artifact-1",
  "contractName": "GitDenza",
  "sourceName": "contracts/GitDenza.sol",
  "abi": [
    {
      "inputs": [],
      "stateMutability": "nonpayable",
      "type": "constructor"
    },
    {
      "anonymous": false,
      "inputs": [
        {
          "indexed": true,
          "internalType": "address",
          "name": "owner",
          "type": "address"
        },
        {
          "indexed": true,
          "internalType": "address",
          "name": "approved",
          "type": "address"
        },
        {
          "indexed": true,
          "internalType": "uint256",
          "name": "tokenId",
          "type": "uint256"
        }
      ],
      "name": "Approval",
      "type": "event"
    },
    {
      "anonymous": false,
      "inputs": [
        {
          "indexed": true,
          "internalType": "address",
          "name": "owner",
          "type": "address"
        },
        {
          "indexed": true,
          "internalType": "address",
          "name": "operator",
          "type": "address"
        },
        {
          "indexed": false,
          "internalType": "bool",
          "name": "approved",
          "type": "bool"
        }
      ],
      "name": "ApprovalForAll",
      "type": "event"
    },
    {
      "anonymous": false,
      "inputs": [
        {
          "indexed": true,
          "internalType": "address",
          "name": "previousOwner",
          "type": "address"
        },
        {
          "indexed": true,
          "internalType": "address",
          "name": "newOwner",
          "type": "address"
        }
      ],
      "name": "OwnershipTransferred",
      "type": "event"
    },
    {
      "anonymous": false,
      "inputs": [
        {
          "indexed": true,
          "internalType": "address",
          "name": "from",
          "type": "address"
        },
        {
          "indexed": true,
          "internalType": "address",
          "name": "to",
          "type": "address"
        },
        {
          "indexed": true,
          "internalType": "uint256",
          "name": "tokenId",
          "type": "uint256"
        }
      ],
      "name": "Transfer",
      "type": "event"
    },
    {
      "inputs": [
        {
          "internalType": "address",
          "name": "to",
          "type": "address"
        },
        {
          "internalType": "uint256",
          "name": "tokenId",
          "type": "uint256"
        }
      ],
      "name": "approve",
      "outputs": [],
      "stateMutability": "nonpayable",
      "type": "function"
    },
    {
      "inputs": [
        {
          "internalType": "address",
          "name": "owner",
          "type": "address"
        }
      ],
      "name": "balanceOf",
      "outputs": [
        {
          "internalType": "uint256",
          "name": "",
          "type": "uint256"
        }
      ],
      "stateMutability": "view",
      "type": "function"
    },
    {
      "inputs": [],
      "name": "fetchLatestSeed",
      "outputs": [
        {
          "internalType": "uint256",
          "name": "",
          "type": "uint256"
        }
      ],
      "stateMutability": "view",
      "type": "function"
    },
    {
      "inputs": [
        {
          "internalType": "uint256",
          "name": "tokenId",
          "type": "uint256"
        }
      ],
      "name": "getApproved",
      "outputs": [
        {
          "internalType": "address",
          "name": "",
          "type": "address"
        }
      ],
      "stateMutability": "view",
      "type": "function"
    },
    {
      "inputs": [
        {
          "internalType": "address",
          "name": "owner",
          "type": "address"
        },
        {
          "internalType": "address",
          "name": "operator",
          "type": "address"
        }
      ],
      "name": "isApprovedForAll",
      "outputs": [
        {
          "internalType": "bool",
          "name": "",
          "type": "bool"
        }
      ],
      "stateMutability": "view",
      "type": "function"
    },
    {
      "inputs": [],
      "name": "name",
      "outputs": [
        {
          "internalType": "string",
          "name": "",
          "type": "string"
        }
      ],
      "stateMutability": "view",
      "type": "function"
    },
    {
      "inputs": [],
      "name": "owner",
      "outputs": [
        {
          "internalType": "address",
          "name": "",
          "type": "address"
        }
      ],
      "stateMutability": "view",
      "type": "function"
    },
    {
      "inputs": [
        {
          "internalType": "uint256",
          "name": "tokenId",
          "type": "uint256"
        }
      ],
      "name": "ownerOf",
      "outputs": [
        {
          "internalType": "address",
          "name": "",
          "type": "address"
        }
      ],
      "stateMutability": "view",
      "type": "function"
    },
    {
      "inputs": [],
      "name": "renounceOwnership",
      "outputs": [],
      "stateMutability": "nonpayable",
      "type": "function"
    },
    {
      "inputs": [
        {
          "internalType": "string",
          "name": "seedhash",
          "type": "string"
        }
      ],
      "name": "safeMint",
      "outputs": [],
      "stateMutability": "nonpayable",
      "type": "function"
    },
    {
      "inputs": [
        {
          "internalType": "address",
          "name": "from",
          "type": "address"
        },
        {
          "internalType": "address",
          "name": "to",
          "type": "address"
        },
        {
          "internalType": "uint256",
          "name": "tokenId",
          "type": "uint256"
        }
      ],
      "name": "safeTransferFrom",
      "outputs": [],
      "stateMutability": "nonpayable",
      "type": "function"
    },
    {
      "inputs": [
        {
          "internalType": "address",
          "name": "from",
          "type": "address"
        },
        {
          "internalType": "address",
          "name": "to",
          "type": "address"
        },
        {
          "internalType": "uint256",
          "name": "tokenId",
          "type": "uint256"
        },
        {
          "internalType": "bytes",
          "name": "_data",
          "type": "bytes"
        }
      ],
      "name": "safeTransferFrom",
      "outputs": [],
      "stateMutability": "nonpayable",
      "type": "function"
    },
    {
      "inputs": [
        {
          "internalType": "address",
          "name": "operator",
          "type": "address"
        },
        {
          "internalType": "bool",
          "name": "approved",
          "type": "bool"
        }
      ],
      "name": "setApprovalForAll",
      "outputs": [],
      "stateMutability": "nonpayable",
      "type": "function"
    },
    {
      "inputs": [
        {
          "internalType": "bytes4",
          "name": "interfaceId",
          "type": "bytes4"
        }
      ],
      "name": "supportsInterface",
      "outputs": [
        {
          "internalType": "bool",
          "name": "",
          "type": "bool"
        }
      ],
      "stateMutability": "view",
      "type": "function"
    },
    {
      "inputs": [],
      "name": "symbol",
      "outputs": [
        {
          "internalType": "string",
          "name": "",
          "type": "string"
        }
      ],
      "stateMutability": "view",
      "type": "function"
    },
    {
      "inputs": [
        {
          "internalType": "uint256",
          "name": "tokenId",
          "type": "uint256"
        }
      ],
      "name": "tokenURI",
      "outputs": [
        {
          "internalType": "string",
          "name": "",
          "type": "string"
        }
      ],
      "stateMutability": "view",
      "type": "function"
    },
    {
      "inputs": [
        {
          "internalType": "address",
          "name": "from",
          "type": "address"
        },
        {
          "internalType": "address",
          "name": "to",
          "type": "address"
        },
        {
          "internalType": "uint256",
          "name": "tokenId",
          "type": "uint256"
        }
      ],
      "name": "transferFrom",
      "outputs": [],
      "stateMutability": "nonpayable",
      "type": "function"
    },
    {
      "inputs": [
        {
          "internalType": "address",
          "name": "newOwner",
          "type": "address"
        }
      ],
      "name": "transferOwnership",
      "outputs": [],
      "stateMutability": "nonpayable",
      "type": "function"
    }
  ],
  "bytecode": "0x60806040523480156200001157600080fd5b50604080518082018252600881526747697444656e7a6160c01b60208083019182528351808501909452600384526223a22d60e91b9084015281519192916200005d91600091620000ec565b50805162000073906001906020840190620000ec565b505050620000906200008a6200009660201b60201c565b6200009a565b620001cf565b3390565b600780546001600160a01b038381166001600160a01b0319831681179093556040519116919082907f8be0079c531659141344cd1fd0a4f28419497f9722a3daafe3b4186f6b6457e090600090a35050565b828054620000fa9062000192565b90600052602060002090601f0160209004810192826200011e576000855562000169565b82601f106200013957805160ff191683800117855562000169565b8280016001018555821562000169579182015b82811115620001695782518255916020019190600101906200014c565b50620001779291506200017b565b5090565b5b808211156200017757600081556001016200017c565b600181811c90821680620001a757607f821691505b60208210811415620001c957634e487b7160e01b600052602260045260246000fd5b50919050565b6118fe80620001df6000396000f3fe608060405234801561001057600080fd5b50600436106101165760003560e01c8063715018a6116100a2578063a22cb46511610071578063a22cb4651461022e578063b88d4fde14610241578063c87b56dd14610254578063e985e9c514610267578063f2fde38b146102a357600080fd5b8063715018a6146102055780638167d3e21461020d5780638da5cb5b1461021557806395d89b411461022657600080fd5b806323b872dd116100e957806323b872dd1461019857806342842e0e146101ab5780636352211e146101be578063695850fb146101d157806370a08231146101e457600080fd5b806301ffc9a71461011b57806306fdde0314610143578063081812fc14610158578063095ea7b314610183575b600080fd5b61012e6101293660046115b3565b6102b6565b60405190151581526020015b60405180910390f35b61014b610308565b60405161013a91906116e1565b61016b610166366004611631565b61039a565b6040516001600160a01b03909116815260200161013a565b61019661019136600461158a565b610427565b005b6101966101a636600461149c565b61053d565b6101966101b936600461149c565b61056e565b61016b6101cc366004611631565b610589565b6101966101df3660046115eb565b610600565b6101f76101f2366004611450565b610633565b60405190815260200161013a565b6101966106ba565b6101f7610720565b6007546001600160a01b031661016b565b61014b610730565b61019661023c366004611550565b61073f565b61019661024f3660046114d7565b610804565b61014b610262366004611631565b61083c565b61012e61027536600461146a565b6001600160a01b03918216600090815260056020908152604080832093909416825291909152205460ff1690565b6101966102b1366004611450565b610847565b60006001600160e01b031982166380ac58cd60e01b14806102e757506001600160e01b03198216635b5e139f60e01b145b8061030257506301ffc9a760e01b6001600160e01b03198316145b92915050565b60606000805461031790611806565b80601f016020809104026020016040519081016040528092919081815260200182805461034390611806565b80156103905780601f1061036557610100808354040283529160200191610390565b820191906000526020600020905b81548152906001019060200180831161037357829003601f168201915b5050505050905090565b60006103a582610912565b61040b5760405162461bcd60e51b815260206004820152602c60248201527f4552433732313a20617070726f76656420717565727920666f72206e6f6e657860448201526b34b9ba32b73a103a37b5b2b760a11b60648201526084015b60405180910390fd5b506000908152600460205260409020546001600160a01b031690565b600061043282610589565b9050806001600160a01b0316836001600160a01b031614156104a05760405162461bcd60e51b815260206004820152602160248201527f4552433732313a20617070726f76616c20746f2063757272656e74206f776e656044820152603960f91b6064820152608401610402565b336001600160a01b03821614806104bc57506104bc8133610275565b61052e5760405162461bcd60e51b815260206004820152603860248201527f4552433732313a20617070726f76652063616c6c6572206973206e6f74206f7760448201527f6e6572206e6f7220617070726f76656420666f7220616c6c00000000000000006064820152608401610402565b610538838361092f565b505050565b610547338261099d565b6105635760405162461bcd60e51b815260040161040290611746565b610538838383610a87565b61053883838360405180602001604052806000815250610804565b6000818152600260205260408120546001600160a01b0316806103025760405162461bcd60e51b815260206004820152602960248201527f4552433732313a206f776e657220717565727920666f72206e6f6e657869737460448201526832b73a103a37b5b2b760b91b6064820152608401610402565b600061060b60085490565b90506106173382610c27565b610625600880546001019055565b61062f8183610c41565b5050565b60006001600160a01b03821661069e5760405162461bcd60e51b815260206004820152602a60248201527f4552433732313a2062616c616e636520717565727920666f7220746865207a65604482015269726f206164647265737360b01b6064820152608401610402565b506001600160a01b031660009081526003602052604090205490565b6007546001600160a01b031633146107145760405162461bcd60e51b815260206004820181905260248201527f4f776e61626c653a2063616c6c6572206973206e6f7420746865206f776e65726044820152606401610402565b61071e6000610ccc565b565b600061072b60085490565b905090565b60606001805461031790611806565b6001600160a01b0382163314156107985760405162461bcd60e51b815260206004820152601960248201527f4552433732313a20617070726f766520746f2063616c6c6572000000000000006044820152606401610402565b3360008181526005602090815260408083206001600160a01b03871680855290835292819020805460ff191686151590811790915590519081529192917f17307eab39ab6107e8899845ad3d59bd9653f200f220920489ca2b5937696c31910160405180910390a35050565b61080e338361099d565b61082a5760405162461bcd60e51b815260040161040290611746565b61083684848484610d1e565b50505050565b606061030282610d51565b6007546001600160a01b031633146108a15760405162461bcd60e51b815260206004820181905260248201527f4f776e61626c653a2063616c6c6572206973206e6f7420746865206f776e65726044820152606401610402565b6001600160a01b0381166109065760405162461bcd60e51b815260206004820152602660248201527f4f776e61626c653a206e6577206f776e657220697320746865207a65726f206160448201526564647265737360d01b6064820152608401610402565b61090f81610ccc565b50565b6000908152600260205260409020546001600160a01b0316151590565b600081815260046020526040902080546001600160a01b0319166001600160a01b038416908117909155819061096482610589565b6001600160a01b03167f8c5be1e5ebec7d5bd14f71427d1e84f3dd0314c0f7b2291e5b200ac8c7c3b92560405160405180910390a45050565b60006109a882610912565b610a095760405162461bcd60e51b815260206004820152602c60248201527f4552433732313a206f70657261746f7220717565727920666f72206e6f6e657860448201526b34b9ba32b73a103a37b5b2b760a11b6064820152608401610402565b6000610a1483610589565b9050806001600160a01b0316846001600160a01b03161480610a4f5750836001600160a01b0316610a448461039a565b6001600160a01b0316145b80610a7f57506001600160a01b0380821660009081526005602090815260408083209388168352929052205460ff165b949350505050565b826001600160a01b0316610a9a82610589565b6001600160a01b031614610b025760405162461bcd60e51b815260206004820152602960248201527f4552433732313a207472616e73666572206f6620746f6b656e2074686174206960448201526839903737ba1037bbb760b91b6064820152608401610402565b6001600160a01b038216610b645760405162461bcd60e51b8152602060048201526024808201527f4552433732313a207472616e7366657220746f20746865207a65726f206164646044820152637265737360e01b6064820152608401610402565b610b6f60008261092f565b6001600160a01b0383166000908152600360205260408120805460019290610b989084906117c3565b90915550506001600160a01b0382166000908152600360205260408120805460019290610bc6908490611797565b909155505060008181526002602052604080822080546001600160a01b0319166001600160a01b0386811691821790925591518493918716917fddf252ad1be2c89b69c2b068fc378daa952ba7f163c4a11628f55a4df523b3ef91a4505050565b61062f828260405180602001604052806000815250610ec0565b610c4a82610912565b610cad5760405162461bcd60e51b815260206004820152602e60248201527f45524337323155524953746f726167653a2055524920736574206f66206e6f6e60448201526d32bc34b9ba32b73a103a37b5b2b760911b6064820152608401610402565b6000828152600660209081526040909120825161053892840190611325565b600780546001600160a01b038381166001600160a01b0319831681179093556040519116919082907f8be0079c531659141344cd1fd0a4f28419497f9722a3daafe3b4186f6b6457e090600090a35050565b610d29848484610a87565b610d3584848484610ef3565b6108365760405162461bcd60e51b8152600401610402906116f4565b6060610d5c82610912565b610dc25760405162461bcd60e51b815260206004820152603160248201527f45524337323155524953746f726167653a2055524920717565727920666f72206044820152703737b732bc34b9ba32b73a103a37b5b2b760791b6064820152608401610402565b60008281526006602052604081208054610ddb90611806565b80601f0160208091040260200160405190810160405280929190818152602001828054610e0790611806565b8015610e545780601f10610e2957610100808354040283529160200191610e54565b820191906000526020600020905b815481529060010190602001808311610e3757829003601f168201915b505050505090506000610e7260408051602081019091526000815290565b9050805160001415610e85575092915050565b815115610eb7578082604051602001610e9f929190611675565b60405160208183030381529060405292505050919050565b610a7f84611000565b610eca83836110d8565b610ed76000848484610ef3565b6105385760405162461bcd60e51b8152600401610402906116f4565b60006001600160a01b0384163b15610ff557604051630a85bd0160e11b81526001600160a01b0385169063150b7a0290610f379033908990889088906004016116a4565b602060405180830381600087803b158015610f5157600080fd5b505af1925050508015610f81575060408051601f3d908101601f19168201909252610f7e918101906115cf565b60015b610fdb573d808015610faf576040519150601f19603f3d011682016040523d82523d6000602084013e610fb4565b606091505b508051610fd35760405162461bcd60e51b8152600401610402906116f4565b805181602001fd5b6001600160e01b031916630a85bd0160e11b149050610a7f565b506001949350505050565b606061100b82610912565b61106f5760405162461bcd60e51b815260206004820152602f60248201527f4552433732314d657461646174613a2055524920717565727920666f72206e6f60448201526e3732bc34b9ba32b73a103a37b5b2b760891b6064820152608401610402565b600061108660408051602081019091526000815290565b905060008151116110a657604051806020016040528060008152506110d1565b806110b08461120b565b6040516020016110c1929190611675565b6040516020818303038152906040525b9392505050565b6001600160a01b03821661112e5760405162461bcd60e51b815260206004820181905260248201527f4552433732313a206d696e7420746f20746865207a65726f20616464726573736044820152606401610402565b61113781610912565b156111845760405162461bcd60e51b815260206004820152601c60248201527f4552433732313a20746f6b656e20616c7265616479206d696e746564000000006044820152606401610402565b6001600160a01b03821660009081526003602052604081208054600192906111ad908490611797565b909155505060008181526002602052604080822080546001600160a01b0319166001600160a01b03861690811790915590518392907fddf252ad1be2c89b69c2b068fc378daa952ba7f163c4a11628f55a4df523b3ef908290a45050565b60608161122f5750506040805180820190915260018152600360fc1b602082015290565b8160005b8115611259578061124381611841565b91506112529050600a836117af565b9150611233565b60008167ffffffffffffffff81111561128257634e487b7160e01b600052604160045260246000fd5b6040519080825280601f01601f1916602001820160405280156112ac576020820181803683370190505b5090505b8415610a7f576112c16001836117c3565b91506112ce600a8661185c565b6112d9906030611797565b60f81b8183815181106112fc57634e487b7160e01b600052603260045260246000fd5b60200101906001600160f81b031916908160001a90535061131e600a866117af565b94506112b0565b82805461133190611806565b90600052602060002090601f0160209004810192826113535760008555611399565b82601f1061136c57805160ff1916838001178555611399565b82800160010185558215611399579182015b8281111561139957825182559160200191906001019061137e565b506113a59291506113a9565b5090565b5b808211156113a557600081556001016113aa565b600067ffffffffffffffff808411156113d9576113d961189c565b604051601f8501601f19908116603f011681019082821181831017156114015761140161189c565b8160405280935085815286868601111561141a57600080fd5b858560208301376000602087830101525050509392505050565b80356001600160a01b038116811461144b57600080fd5b919050565b600060208284031215611461578081fd5b6110d182611434565b6000806040838503121561147c578081fd5b61148583611434565b915061149360208401611434565b90509250929050565b6000806000606084860312156114b0578081fd5b6114b984611434565b92506114c760208501611434565b9150604084013590509250925092565b600080600080608085870312156114ec578081fd5b6114f585611434565b935061150360208601611434565b925060408501359150606085013567ffffffffffffffff811115611525578182fd5b8501601f81018713611535578182fd5b611544878235602084016113be565b91505092959194509250565b60008060408385031215611562578182fd5b61156b83611434565b91506020830135801515811461157f578182fd5b809150509250929050565b6000806040838503121561159c578182fd5b6115a583611434565b946020939093013593505050565b6000602082840312156115c4578081fd5b81356110d1816118b2565b6000602082840312156115e0578081fd5b81516110d1816118b2565b6000602082840312156115fc578081fd5b813567ffffffffffffffff811115611612578182fd5b8201601f81018413611622578182fd5b610a7f848235602084016113be565b600060208284031215611642578081fd5b5035919050565b600081518084526116618160208601602086016117da565b601f01601f19169290920160200192915050565b600083516116878184602088016117da565b83519083019061169b8183602088016117da565b01949350505050565b6001600160a01b03858116825284166020820152604081018390526080606082018190526000906116d790830184611649565b9695505050505050565b6020815260006110d16020830184611649565b60208082526032908201527f4552433732313a207472616e7366657220746f206e6f6e20455243373231526560408201527131b2b4bb32b91034b6b83632b6b2b73a32b960711b606082015260800190565b60208082526031908201527f4552433732313a207472616e736665722063616c6c6572206973206e6f74206f6040820152701ddb995c881b9bdc88185c1c1c9bdd9959607a1b606082015260800190565b600082198211156117aa576117aa611870565b500190565b6000826117be576117be611886565b500490565b6000828210156117d5576117d5611870565b500390565b60005b838110156117f55781810151838201526020016117dd565b838111156108365750506000910152565b600181811c9082168061181a57607f821691505b6020821081141561183b57634e487b7160e01b600052602260045260246000fd5b50919050565b600060001982141561185557611855611870565b5060010190565b60008261186b5761186b611886565b500690565b634e487b7160e01b600052601160045260246000fd5b634e487b7160e01b600052601260045260246000fd5b634e487b7160e01b600052604160045260246000fd5b6001600160e01b03198116811461090f57600080fdfea264697066735822122051c3b80e7a77e69045c25eb47d433f13aa3695bae0935b3a511e0a122ae5c6a464736f6c63430008040033",
  "linkReferences": {},
  "deployedLinkReferences": {}
}